S01900004672656552544F5341746D6567613332382E7372656355
S11300000C9434000C9451000C9451000C94510045
S11300100C9451000C9451000C9451000C94510018
S11300200C9451000C9451000C9451000C948602D1
S11300300C9451000C9451000C9451000C945100F8
S11300400C9451000C9451000C9451000C945100E8
S11300500C9451000C9451000C9451000C945100D8
S11300600C9451000C94510011241FBECFEFD8E022
S1130070DEBFCDBF11E0A0E0B1E0E2E9FCE002C0E8
S113008005900D92AE30B107D9F727E0AEE0B1E0AC
S113009001C01D92A634B207E1F70E945D000C94E2
S11300A047060C940000209AC1E085B18C2785B9DD
S11300B084EF91E00E946705F8CFAF92BF92CF9290
S11300C0DF92EF92FF920F93CF93DF9300D0CDB7DF
S11300D0DEB7A12CB12CC12CD12CCE0101967C0110
S11300E000E020E030E045E550E062E071E083E5C7
S11300F090E00E94E7020E94EC0380E090E00F9001
S11301000F90DF91CF910F91FF90EF90DF90CF9000
S1130110BF90AF9008950895FC0103969283818364
S11301202FEF3FEF348323839683858390878783E0
S113013010820895FC01118610860895CF93DF93F1
S1130140FC01DB0121813281E9018A819B811396C3
S11301509C938E9312978181928115969C938E9392
S113016014978A819B81EC017D836C83E9017B83F5
S11301706A83728361831996FC93EE931897808146
S11301808F5F8083DF91CF910895CF93DF93EB014D
S1130190488159814F3F2FEF520731F4DC01179604
S11301A0ED91FC91189717C0FC013396DC0115966C
S11301B02D913C911697D9012D913C9142175307EB
S11301C050F00280F381E02DA281B3812D913C9106
S11301D042175307B0F7A281B381BB83AA83159654
S11301E0DC93CE931497FD83EC83D383C2839987E6
S11301F08887FC0120812F5F2083DF91CF910895B0
S1130200FC01A281B3818481958115969C938E9380
S11302101497A481B5818281938113969C938E93C4
S11302201297A085B18511968D919C9112978E1786
S11302309F0731F48481958112969C938E93119734
S1130240118610868C9181508C93089531E1FC01C4
S11302503083319722E220833197A3E3A08331973F
S113026060833197708331971082319760E860839F
S113027031971082319762E06083319763E0608345
S1130280319764E06083319765E06083319766E07D
S11302906083319767E06083319768E060833197CA
S11302A069E06083319760E16083319730833197EF
S11302B032E13083319733E13083319734E1308355
S11302C0319735E13083319736E13083319737E127
S11302D03083319738E13083319739E13083319776
S11302E030E23083319731E2308331972083319784
S11302F023E220833197408331975083319726E25C
S11303002083319727E22083319728E22083319795
S113031029E22083319720E32083319721E320834E
S1130320869708958EE090E09093890080938800EA
S1130330E0E8F0E080818C7F80838BE08093810013
S1130340EFE6F0E0808182608083A0914407B09161
S11303504507CD91CDBFDD91DEBFFF91EF91DF91D8
S1130360CF91BF91AF919F918F917F916F915F9149
S11303704F913F912F911F910F91FF90EF90DF903C
S1130380CF90BF90AF909F908F907F906F905F9031
S11303904F903F902F901F900F900FBE0F90089595
S11303A081E008950F920FB6F8940F921F921124D2
S11303B02F923F924F925F926F927F928F929F9271
S11303C0AF92BF92CF92DF92EF92FF920F931F935F
S11303D02F933F934F935F936F937F938F939F9349
S11303E0AF93BF93CF93DF93EF93FF93A091440711
S11303F0B09145070DB60D920EB60D920E94C5053B
S1130400A0914407B0914507CD91CDBFDD91DEBFEA
S1130410FF91EF91DF91CF91BF91AF919F918F9118
S11304207F916F915F914F913F912F911F910F9108
S1130430FF90EF90DF90CF90BF90AF909F908F9000
S11304407F906F905F904F903F902F901F900F90F0
S11304500FBE0F9008950F920FB6F8940F921F924B
S113046011242F923F924F925F926F927F928F92BC
S11304709F92AF92BF92CF92DF92EF92FF920F932F
S11304801F932F933F934F935F936F937F938F9318
S11304909F93AF93BF93CF93DF93EF93FF93A09179
S11304A04407B09145070DB60D920EB60D920E9409
S11304B01D040E94C505A0914407B0914507CD9144
S11304C0CDBFDD91DEBFFF91EF91DF91CF91BF9161
S11304D0AF919F918F917F916F915F914F913F91D8
S11304E02F911F910F91FF90EF90DF90CF90BF90CD
S11304F0AF909F908F907F906F905F904F903F90C0
S11305002F901F900F900FBE0F9008950E942B0202
S11305101895CF93DF93EC010E94170420910E01EC
S113052030910F01CE01820F931F8C3D45E094075B
S113053058F42817390758F4E901C05FDE4F909347
S11305400F0180930E0105C0C0E0D0E002C0C0E0FE
S1130550D0E00E94E104CE01DF91CF910895089587
S1130560CF93DF93EC01E0914407F0914507938327
S113057082838091F4069091F506C817D90768F430
S1130580609144077091450780910A0790910B0789
S11305906E5F7F4F0E94C50017C060914407709141
S11305A0450780910C0790910D076E5F7F4F0E9465
S11305B0C5008091000190910101C817D90720F46A
S11305C0D0930101C0930001DF91CF9108954F9220
S11305D05F926F927F928F929F92AF92BF92CF92CF
S11305E0DF92EF92FF920F931F93CF93DF935C01FF
S11305F04B013A01290181E290E00E948902EC0159
S1130600892B09F4D7C0C114D10409F0CFC0C301A8
S11306100E948902988F8F8B009721F4CE010E944B
S1130620AF02C8C0A30165EA70E00E9431069301DD
S1130630215031098F89988D3C01620E731E48E068
S113064050E0B401CE0149960E94380618A2102F3A
S1130650043008F013E01E8B6E0182E0C80ED11C3A
S1130660C6010E949A00CE010C960E949A00D98776
S1130670C88784E090E0811B91099D878C87DB8B80
S1130680CA8BA201B501C3010E9426019983888304
S1130690E114F10419F0F701D183C0830FB6F89483
S11306A00F928091F6068F5F8093F606809144073F
S11306B090914507892BA9F5D0934507C09344072A
S11306C08091F6068130E1F580E297E00E948C008B
S11306D089E297E00E948C0082E397E00E948C00FC
S11306E08BE397E00E948C0087E197E00E948C00E6
S11306F08EE097E00E948C0081E097E00E948C00DD
S113070088EF96E00E948C0087E197E090930D07B4
S113071080930C078EE097E090930B0780930A0771
S11307200FC08091F10681110BC0E0914407F09154
S113073045078689081720F0D0934507C0934407DE
S11307408E899091F306981710F48093F306909194
S1130750EC069F5F9093EC069091F206981710F4C4
S11307608093F20690E09C01220F331F220F331F67
S1130770220F331F820F931FB601805E984F0E9491
S11307809E000F900FBE8091F106882359F0E091EE
S11307904407F09145078689801730F40E94D201FE
S11307A081E009C081E007C081E005C0D88ECF8A0E
S11307B0C60138CF8FEFDF91CF911F910F91FF903A
S11307C0EF90DF90CF90BF90AF909F908F907F90ED
S11307D06F905F904F900895AF92BF92CF92DF9247
S11307E0EF92FF920F93A12CB12CC12CD12CE12CB0
S11307F0F12C00E020E030E045E550E068E071E0F5
S113080087E895E00E94E702813049F4F8948093E8
S1130810F1061092F5061092F4060E9492010F91CF
S1130820FF90EF90DF90CF90BF90AF9008958091AC
S1130830F0068F5F8093F00608950F931F93CF9374
S1130840DF938091F0068111B2C08091F4069091FB
S1130850F50601969093F5068093F4068091F406CC
S11308609091F506892B99F580910C0790910D07CD
S113087020910A0730910B0730930D0720930C0742
S113088090930B0780930A078091ED068F5F809306
S1130890ED06E0910C07F0910D078081811107C0EE
S11308A08FEF9FEF909301018093000110C0E091BE
S11308B00C07F0910D070580F681E02D0680F78185
S11308C0E02D828193819093010180930001209116
S11308D0F4063091F50680910001909101012817EA
S11308E0390708F469C0E0910C07F0910D07808185
S11308F0882399F0E0910C07F0910D070580F681AB
S1130900E02DC681D7818A819B812091F4063091A4
S1130910F50628173907F8F419C08FEF9FEF909365
S113092001018093000148C0E0910C07F0910D078C
S11309300580F681E02DC681D7818A819B81209133
S1130940F4063091F5062817390728F4909301012D
S11309508093000131C08E010E5F1F4FC8010E94B9
S113096000018C899D89892B21F0CE010C960E946F
S113097000012E898091F206821710F42093F2066A
S113098030E0C901880F991F880F991F880F991F9C
S1130990820F931FB801805E984F0E949E00E091E1
S11309A00C07F0910D0780818111BECFB6CF8091E5
S11309B0EF068F5F8093EF06DF91CF911F910F9128
S11309C00895CF92DF92EF92FF920F931F93CF93EC
S11309D0DF930FB6F8940F928091F00681508093C4
S11309E0F0068091F006811164C08091F6068111B1
S11309F032C062C0D7011596ED91FC911697C6815D
S1130A00D781CE010C960E9400018E010E5F1F4F0C
S1130A10C8010E9400012E898091F206821710F409
S1130A202093F20630E0C901880F991F880F991F9F
S1130A30880F991F820F931FB801805E984F0E9400
S1130A409E00E0914407F09145079E898689981796
S1130A5058F0DC2C09C0D12C0F2EF1E0EF2EF7E07A
S1130A60FF2EF02DCC24C394F70180818111C2CFD5
S1130A708091EF06882381F08091EF06882399F016
S1130A800E941D048091EF0681508093EF068091AF
S1130A90EF068111F5CF07C0F1E0DF1621F0809158
S1130AA0EE06813041F41092EE060E94D20181E0FC
S1130AB003C080E001C080E00F900FBEDF91CF91B2
S1130AC01F910F91FF90EF90DF90CF900895CF93F7
S1130AD0DF93EC01892BB1F00E9417048091F40696
S1130AE09091F506C80FD91F80914407909145074E
S1130AF002960E940001CE010E94B0020E94E1040D
S1130B00811102C00E94D201DF91CF9108950F2E6E
S1130B10F8EFEF2EF6E0FF2EF02DC0E2D7E0809143
S1130B20F706882351F10E941704D7011C910E94F3
S1130B30E104112311F10FB6F8940F92D701159621
S1130B40ED91FC91169706811781C80102960E94C7
S1130B5000018091F60681508093F6068091F70695
S1130B6081508093F7060F900FBEF8018789908D0E
S1130B700E94AF02C8010E94AF028881823010F047
S1130B800E94D2010E948B00CACF8091F00681118D
S1130B9013C08091F20690E0FC01EE0FFF1FEE0FF0
S1130BA0FF1FEE0FFF1F8E0F9F1FFC01E05EF84F2B
S1130BB08081882329F01BC081E08093EE0608958C
S1130BC08091F20681508093F2068091F20690E0C3
S1130BD0FC01EE0FFF1FEE0FFF1FEE0FFF1F8E0F26
S1130BE09F1FFC01E05EF84F8081882349F38091C8
S1130BF0F20690E09C01220F331F220F331F220FB5
S1130C00331F280F391FD901A05EB84F1196ED91FB
S1130C10FC9112970280F381E02D1296FC93EE93DF
S1130C2011972D5D384FE217F30729F422813381A0
S1130C30FD0132832183FC01EE0FFF1FEE0FFF1F26
S1130C40EE0FFF1F8E0F9F1FFC01E05EF84F018027
S1130C50F281E02D86819781909345078093440724
S1130C600895DC0101C06D9341505040E0F70895B0
S1130C70FB01DC014150504048F001900D920020EE
S1130C80C9F701C01D9241505040E0F70895F8940F
S1050C90FFCF90
S1110C92FFFF626C696E6B0049444C45000024
S9030000FC
