S00D0000426C696E6B2E7372656327
S11300000C9434000C9451000C9451000C94510045
S11300100C9451000C9451000C9451000C94510018
S11300200C9451000C9451000C9451000C947C02DB
S11300300C9451000C9451000C9451000C945100F8
S11300400C9451000C9451000C9451000C945100E8
S11300500C9451000C9451000C9451000C945100D8
S11300600C9451000C94510011241FBECFEFD8E022
S1130070DEBFCDBF11E0A0E0B1E0ECEAFBE002C0DE
S113008005900D92AE30B107D9F727E0AEE0B1E0AC
S113009001C01D92A634B207E1F70E945D000C94E2
S11300A0D4050C940000209AC1E085B18C2785B951
S11300B084EF91E00E941E05F8CFAF92BF92CF92D9
S11300C0DF92EF92FF920F93CF93DF9300D0CDB7DF
S11300D0DEB7A12CB12CC12CD12CCE0101967C0110
S11300E000E020E030E045E550E062E071E083E5C7
S11300F090E00E94DE020E94D80380E090E00F901E
S11301000F90DF91CF910F91FF90EF90DF90CF9000
S1130110BF90AF9008950895FC0103969283818364
S11301202FEF3FEF348323839683858390878783E0
S113013010820895FC01118610860895CF93DF93F1
S1130140DC01FB0111962D913C911297E9018A8102
S11301509B8193838283358324838A819B81EC01F1
S11301607D836C83E9017B836A8312967C936E930F
S11301701197B187A0878C918F5F8C93DF91CF917A
S11301800895CF93DF93AC01DB018D919C9111977E
S11301908F3F2FEF920721F4EA01EF81F8850EC01B
S11301A0FA01339622813381E9012881398182174A
S11301B0930720F00280F381E02DF4CF82819381B4
S11301C013969C938E931297EC01BD83AC83159682
S11301D0FC93EE931497B383A28319965C934E9386
S11301E01897FA0180818F5F8083DF91CF91089502
S11301F0CF93DF93FC01A281B3818481958115960D
S11302009C938E931497C481D581BB83AA83A085C4
S1130210B18511968D919C9112978E179F0721F4A9
S11302201296DC93CE931197118610868C9181508F
S11302308C93DF91CF91089531E1FC0130833197A4
S113024022E220833197A3E3A0833197608331971F
S1130250708331971082319760E860833197108200
S1130260319762E06083319763E06083319764E0A3
S11302706083319765E06083319766E060833197EE
S113028067E06083319768E06083319769E0608359
S1130290319760E1608331973083319732E1308365
S11302A0319733E13083319734E13083319735E14D
S11302B03083319736E13083319737E1308331979A
S11302C038E13083319739E13083319730E230833C
S11302D0319731E2308331972083319723E22083B1
S11302E03197408331975083319726E220833197A9
S11302F027E22083319728E22083319729E2208363
S1130300319720E32083319721E320838697089552
S11303108EE090E09093890080938800E0E8F0E01C
S113032080818C7F80838BE080938100EFE6F0E016
S1130330808182608083A0914407B0914507CD916C
S1130340CDBFDD91DEBFFF91EF91DF91CF91BF91E2
S1130350AF919F918F917F916F915F914F913F9159
S11303602F911F910F91FF90EF90DF90CF90BF904E
S1130370AF909F908F907F906F905F904F903F9041
S11303802F901F900F900FBE0F90089581E0089555
S11303900F920FB6F8940F921F9211242F923F924E
S11303A04F925F926F927F928F929F92AF92BF9281
S11303B0CF92DF92EF92FF920F931F932F933F936D
S11303C04F935F936F937F938F939F93AF93BF9359
S11303D0CF93DF93EF93FF93A0914407B091450728
S11303E00DB60D920EB60D920E947405A0914407AD
S11303F0B0914507CD91CDBFDD91DEBFFF91EF9167
S1130400DF91CF91BF91AF919F918F917F916F9128
S11304105F914F913F912F911F910F91FF90EF901A
S1130420DF90CF90BF90AF909F908F907F906F9010
S11304305F904F903F902F901F900F900FBE0F90A2
S113044008950F920FB6F8940F921F9211242F92D1
S11304503F924F925F926F927F928F929F92AF9250
S1130460BF92CF92DF92EF92FF920F931F932F933D
S11304703F934F935F936F937F938F939F93AF9328
S1130480BF93CF93DF93EF93FF93A0914407B09171
S113049045070DB60D920EB60D920E9410040E94EF
S11304A07405A0914407B0914507CD91CDBFDD916E
S11304B0DEBFFF91EF91DF91CF91BF91AF919F91FB
S11304C08F917F916F915F914F913F912F911F91E8
S11304D00F91FF90EF90DF90CF90BF90AF909F90DF
S11304E08F907F906F905F904F903F902F901F90D0
S11304F00F900FBE0F9008950E94210218950F933C
S11305001F93CF93DF938C010E940A04C0910E01C4
S1130510D0910F01C8018C0F9D1F8C3D25E09207DF
S113052050F4C817D90738F4C05FDE4F90930F0119
S113053080930E0102C0C0E0D0E00E94AF04CE015F
S1130540DF91CF911F910F9108950895CF93DF9379
S1130550E0914407F0914507938382832091F40648
S11305603091F5068217930770F4609144077091F7
S1130570450780910A0790910B076E5F7F4FDF91CB
S1130580CF910C94C100EC01609144077091450730
S113059080910C0790910D076E5F7F4F0E94C10000
S11305A08091000190910101C817D90720F4D093DC
S11305B00101C0930001DF91CF9108954F925F92A2
S11305C06F927F928F929F92AF92BF92CF92DF925F
S11305D0EF92FF920F931F93CF93DF935C013B0144
S11305E0EA01490181E290E00E947F022C01892BFB
S11305F009F4CCC0C114D10421F4CE010E947F02BD
S113060001C0C601F201908F878B009721F4C201CB
S11306100E94A502BBC0AE0165EA70E00E94BE055F
S11306202197F201C788D08CCC0EDD1E48E050E043
S1130630B301C20149960E94C505F20110A2102F10
S1130640043008F013E0F201168BE2012296CE0189
S11306500E949A00C2010C960E949A00F2015186EF
S1130660408684E090E0811B910995878487538AB2
S1130670428AA401B501C6010E941C01F2019183C2
S11306808083E114F10419F0F701518240820FB61E
S1130690F8940F928091F6068F5F8093F60680910E
S11306A0440790914507892BA9F55092450740923C
S11306B044078091F6068130E1F580E297E00E94DC
S11306C08C0089E297E00E948C0082E397E00E940C
S11306D08C008BE397E00E948C0087E197E00E94F6
S11306E08C008EE097E00E948C0081E097E00E94ED
S11306F08C0088EF96E00E948C0087E197E090934D
S11307000D0780930C078EE097E090930B0780937E
S11307100A070FC08091F10681110BC0E0914407D4
S1130720F09145078689081720F0509245074092BA
S11307304407F20186899091F306981710F4809388
S1130740F3069091EC069F5F9093EC069091F2066D
S1130750981710F48093F206F9E08F9FC0011124DA
S1130760BE01805E984F0E949E000F900FBE809144
S1130770F106882349F0E0914407F0914507868902
S1130780801710F40E94C80181E001C08FEFDF914F
S1130790CF911F910F91FF90EF90DF90CF90BF907A
S11307A0AF909F908F907F906F905F904F9008953F
S11307B0AF92BF92CF92DF92EF92FF920F93A12C50
S11307C0B12CC12CD12CE12CF12C00E020E030E044
S11307D045E550E068E071E08FE395E00E94DE02B9
S11307E0813081F4F8948093F1061092F50610920A
S11307F0F4060F91FF90EF90DF90CF90BF90AF90F1
S11308000C9488010F91FF90EF90DF90CF90BF90F0
S1130810AF9008958091F0068F5F8093F00608955D
S1130820FF920F931F93CF93DF938091F006811172
S11308308BC08091F4069091F50601969093F5068D
S11308408093F4068091F4069091F506892B79F54E
S113085080910C0790910D0720910A0730910B07A6
S113086030930D0720930C0790930B0780930A078E
S11308708091ED068F5F8093ED06E0910C07F09177
S11308800D078081811103C08FEF9FEF0CC0E091B1
S11308900C07F0910D070580F681E02D0680F781A5
S11308A0E02D828193819093010180930001209136
S11308B0F4063091F506809100019091010128170A
S11308C0390708F446C089E0F82EE0910C07F0914E
S11308D00D078081811103C08FEF9FEF12C0E0915B
S11308E00C07F0910D070580F681E02DC681D781B4
S11308F08A819B812091F4063091F50628173907E7
S113090028F4909301018093000123C08E010E5FAF
S11309101F4FC8010E94F8008C899D89892B21F002
S1130920CE010C960E94F8009E898091F2068917E8
S113093010F49093F206F99EC0011124B801805E70
S1130940984F0E949E00C1CF8091EF068F5F8093E5
S1130950EF06DF91CF911F910F91FF900895EF92D1
S1130960FF920F931F93CF93DF930FB6F8940F92D8
S11309708091F00681508093F0068091F0068823E0
S113098011F080E052C08091F6068823D1F310E084
S113099009E080910107882351F1E0910607F09165
S11309A00707C681D781CE010C960E94F8007E010C
S11309B082E0E80EF11CC7010E94F8009E89809134
S11309C0F206891710F49093F206099FC0011124CE
S11309D0B701805E984F0E949E00E0914407F09119
S11309E045079E8986899817A0F211E0D2CF80919D
S11309F0EF06882361F08091EF06882351F00E946E
S1130A0010048091EF0681508093EF06F4CF1130EB
S1130A1031F41092EE060E94C80181E006C0809174
S1130A20EE06813009F0ADCFF4CF0F900FBEDF9109
S1130A30CF911F910F91FF90EF900895CF93DF9383
S1130A40EC01892B19F40E94C80116C00E940A0403
S1130A502091F4063091F506C20FD31F809144070C
S1130A609091450702960E94F800CE010E94A602CA
S1130A700E94AF04882339F3DF91CF9108958091C8
S1130A80F706882341F10E940A04C091F8060E94E7
S1130A90AF04CC2301F10FB6F8940F92E091FD0658
S1130AA0F091FE06C681D781CE0102960E94F8001D
S1130AB08091F60681508093F6068091F706815066
S1130AC08093F7060F900FBE8F89988D0E94A50220
S1130AD0CE010E94A50280912007823010F00E946E
S1130AE0C8010E948B00CBCF8091F006882321F0AF
S1130AF081E08093EE06089599E0E091F2069E9FCE
S1130B00F0011124E05EF84F8081811106C08091CC
S1130B10F20681508093F206F0CF8091F20690E0C5
S1130B2049E0489F9001499F300D1124F901E05E8E
S1130B30F84FA181B28112960D90BC91A02DB28381
S1130B40A1832D5D384FA217B30731F412962D916E
S1130B503C9113973283218329E0289FF001299F38
S1130B60F00D1124E05EF84F0180F281E02D8681C2
S1130B70978190934507809344070895DC0101C051
S1130B806D9341505040E0F70895FB01DC01415062
S1130B90504048F001900D920020C9F701C01D9209
S10F0BA041505040E0F70895F894FFCF56
S1110BACFFFF626C696E6B0049444C4500000B
S9030000FC
